:020000040800F2
:1000000080070020CD010008D5010008D7010008B5
:10001000D9010008DB010008DD0100080000000034
:10002000000000000000000000000000DF010008E8
:10003000E101000800000000E3010008E5010008FC
:10004000E7010008E7010008E7010008E7010008F0
:10005000E7010008E7010008E7010008E7010008E0
:10006000E7010008E7010008E7010008E7010008D0
:10007000E7010008E7010008E7010008E7010008C0
:10008000E7010008E7010008E7010008E7010008B0
:10009000E7010008E7010008E7010008E7010008A0
:1000A000E7010008E7010008E7010008E701000890
:1000B000E7010008E70100087B030008E7010008EA
:1000C000E7010008E7010008E7010008E701000870
:1000D000E7010008CF020008E7010008E701000877
:1000E000E7010008E7010008E7010008E701000850
:1000F000E7010008E7010008E7010008E701000840
:10010000E7010008E7010008E7010008E70100082F
:10011000E7010008E7010008E7010008E70100081F
:10012000E7010008E7010008E7010008E70100080F
:1001300000F002F800F03AF80AA090E8000C8244BF
:100140008344AAF10107DA4501D100F02FF8AFF29C
:10015000090EBAE80F0013F0010F18BFFB1A43F0A5
:1001600001031847C4540000E4540000103A24BFAF
:1001700078C878C1FAD8520724BF30C830C144BF0C
:1001800004680C607047000000230024002500264E
:10019000103A28BF78C1FBD8520728BF30C148BFEA
:1001A0000B6070471FB51FBD10B510BD03F076FE84
:1001B0001146FFF7F7FF00F029F803F094FE03B4AF
:1001C000FFF7F2FF03BC03F095FE000009488047EB
:1001D00009480047FEE7FEE7FEE7FEE7FEE7FEE729
:1001E000FEE7FEE7FEE7FEE704480549054A064B41
:1001F00070470000B91D000831010008800100208F
:1002000080070020800300208003002000F060F9B8
:1002100001F0E8F901F02EF901F041F900F098F948
:1002200000F0B5F900F0C3F901F062F901F07DF9D1
:1002300000F01CFA0A2000F0CBFC00F083FB01F078
:10024000B9FA00BFFEE700007E4800787E490870DA
:100250007C4840787D4908707A4880787C490870ED
:10026000784800797B4908707648C0787A490870E8
:10027000744840797349897940EA012000B277498E
:1002800008807048C0796F49097A40EA01204042ED
:1002900000B2734908806B48407A6A49897A40EA1B
:1002A000012000B26F4908806648C07A6549097B21
:1002B00040EA012000B26C4908806248407B6149F5
:1002C000897B40EA012000B268490880704710B578
:1002D00040F22551664802F09BFB00283ED040F2D8
:1002E0002551634802F0BEFB614802F011FB6149F1
:1002F000087008460078552803D101205E4908603F
:1003000010BD5C480078AA2809D15B480068012824
:1003100005D15A490860002057490860F0E758485D
:1003200000680F280BD10020544908605448006829
:100330000F21B0FBF1F201FB1200514908604F4858
:10034000006801280AD14B4801784D4802680068CE
:10035000401C4B4B18603B488154D1E7082144486E
:1003600002F040FB012806D10821414802F047FB7A
:100370003F4802F0CDFA00BFC2E70EB50121414867
:1003800003F061FD00285BD001213E4803F058FDD9
:10039000FFF75AFF3048007801283DD100F0EDFA10
:1003A0003948006839490968CDE9001038480368C0
:1003B00038480268384801683848006800F046FC50
:1003C000374803683748026837480168374800688B
:1003D00000F091FF2448B0F900302248B0F9002025
:1003E0001F48B0F900101D48B0F9000001F007F9EE
:1003F0002F4800682F4909682F4A1268CDE900216B
:1004000002902E4803682E4802682E4801682E4844
:10041000006801F095FA13E04FF47A712B4803F06D
:10042000E1FC4FF47A71294803F0DEFC4FF47A7155
:10043000264803F0DBFC4FF47A71244803F0D8FC23
:100440000EBD0000FE00002022000020230000203E
:1004500024000020200000202100002016000020A1
:10046000180000201A0000201C0000201E000020A0
:100470000038014014000020080000200C0000207B
:1004800010000020000800403C0000203800002040
:1004900034000020300000202C0000202800002024
:1004A00054000020500000204C0000204800002094
:1004B000600000205C000020580000207400002034
:1004C000700000206C000020780000200004004034
:1004D00010B501F00BFF4FF4803001F027FF01F061
:1004E00064FF1A4908700846007801282CD11020B2
:1004F00002F0E6FA022002F0CFFA002001F09BFFA2
:10050000002001F0AAFF4FF4806001F09DFF02205F
:1005100002F0C2FA102002F0D3FA4FF4E0114FF4C7
:10052000803001F06BFF012001F074FF00BF392023
:1005300001F01FFF0028FAD0022001F06EFF00BF7B
:1005400001F074FF0828FBD110BD00002500002039
:1005500008B501213C2002F033F84FF40070ADF8EB
:10056000000018208DF8030003208DF80200694672
:100570003C4801F06FFD4FF48060ADF800000420AE
:100580008DF803006946374801F064FD08BD08B5E1
:1005900025208DF8000000208DF801008DF8020064
:1005A00001208DF80300684601F08BFC08BD00B502
:1005B00087B001214FF4904002F002F80020ADF81E
:1005C0000400ADF806004FF40070ADF808000020FC
:1005D000ADF80A0001A9244802F012F94FF41650B0
:1005E00003900020ADF81000ADF81200ADF8140033
:1005F000ADF818000C20ADF8160003A91A4802F057
:100600008AF840F22551184802F0F9F9012240F227
:100610002551154802F017F90121134802F007F996
:1006200007B000BD10B5044621460F4802F06CF932
:10063000012000F0CDFA10BD70B506460D463046DB
:10064000FFF7F0FF3A20FFF7EDFF002403E0285DFD
:10065000FFF7E8FF641C0A2CF9DB2020FFF7E2FF1C
:1006600070BD0000000801400038014008B540207E
:10067000ADF8000003208DF8020014208DF803006F
:100680006946AF4801F0E6FC8020ADF80000032089
:100690008DF8020014208DF803006946A84801F087
:1006A000D9FC08BD062000E0401E0028FCD17047A0
:1006B00041F2883000E0401E0028FCD1704700B5B0
:1006C00080209F491031086040200860FFF7EAFF52
:1006D0009B480830006808B9012000E0002010F0B5
:1006E000800F01D0002000BD8020954914310860A2
:1006F000FFF7D8FF92480830006810F0800F01D053
:100700000020F0E780208E4914310860FFF7CAFF0F
:100710000120E8E700B54020894914310860FFF75F
:10072000C1FF8020864914310860FFF7BBFF4020DD
:10073000834910310860FFF7B5FF802080491031F0
:100740000860FFF7AFFF00BD00B540207C491431C1
:100750000860FFF7A7FF8020794914310860FFF790
:10076000A1FF4020764910310860FFF79BFF402031
:10077000734914310860FFF795FF00BD00B54020B4
:100780006F4914310860FFF78DFF80206C491031EC
:100790000860FFF787FF4020694910310860FFF7C4
:1007A00081FF4020664914310860FFF77BFF00BDE0
:1007B00000B54020624914310860FFF773FF8020C4
:1007C0005F4910310860FFF76DFF40205C49103130
:1007D0000860FFF767FF5A480830006810F0800F84
:1007E00007D04020564914310860FFF75BFF002016
:1007F00000BD4020524914310860FFF753FF01202B
:10080000F6E700B5024608231BE040204C491431AE
:100810000860FFF747FF12F0800F04D0802048499E
:100820001031086003E0802045491431086050060B
:10083000020EFFF737FF4020414910310860FFF7F3
:1008400031FF1800A3F10101CBB2DED140203C49B9
:100850001431086000BD00B508230022802038490B
:100860001031086015E05006020E40203449143162
:100870000860FFF717FF4020314910310860FFF78B
:1008800011FF2F480830006810F0800F01D042F0AF
:1008900001021800A3F10101CBB2E4D140202849A4
:1008A00014310860104600BD70B506460C4615466A
:1008B000FFF705FF08B9002070BD3046FFF7A1FF24
:1008C000FFF776FF18B9FFF725FF0020F4E7204671
:1008D000FFF797FFFFF76CFF2846FFF792FFFFF740
:1008E00067FFFFF717FFFFF7E3FE0120E4E770B5AE
:1008F00004460D46FFF7E3FE08B9002070BD204610
:10090000FFF77FFFFFF754FF18B9FFF703FF002041
:10091000F4E72846FFF775FFFFF74AFFFFF7CFFE22
:10092000611CC8B2FFF76DFFFFF742FFFFF793FFAF
:100930000646FFF723FFFFF7EDFE3046DEE7000037
:10094000000C014010B500226B21D020FFF7ACFF56
:1009500004221921D020FFF7A7FF06221A21D02058
:10096000FFF7A2FF18221B21D020FFF79DFF0122D5
:100970001C21D020FFF798FF10BD2DE9F0473C2146
:10098000D020FFF7B4FF844908703B21D020FFF747
:10099000AEFF8149487008460078497840EA012056
:1009A00000B27E4908800846B0F9000004F0D0FB90
:1009B00004464FF08D4104F0B5FA794908603E21B4
:1009C000D020FFF794FF744988703D21D020FFF7B5
:1009D0008EFF7149C87008468078C97840EA0120C6
:1009E00000B26E4908800846B0F9000004F0B0FB80
:1009F00004464FF08D4104F095FA6A4908604021A1
:100A0000D020FFF774FF644908713F21D020FFF721
:100A10006EFF6149487108460079497940EA012032
:100A200000B25E4908800846B0F9000004F090FB6F
:100A300004464FF08D4104F075FA5B49086044218B
:100A4000D020FFF754FF544908724321D020FFF70C
:100A50004EFF514948720846007A497A40EA01201F
:100A600000B24E4908800846B0F9000003F093FE3A
:100A700006464E4A4E4B03F007FD044603F05CFE6B
:100A800000B2464908800846B0F9000003F083FE32
:100A900080460022474B03F0F7FC06464FF0204209
:100AA000454B04F0BBF8044603F000FC43490860E2
:100AB0004621D020FFF71BFF374988724521D020FF
:100AC000FFF715FF3449C8720846807AC97A40EAB0
:100AD000012000B2314908800846B0F9000003F057
:100AE0005AFE0646314A324B03F0CEFC044603F070
:100AF00023FE00B2294908800846B0F9000003F03F
:100B00004AFE064600222B4B03F0BEFC04464FF083
:100B100020422B4B04F082F8804603F0C7FB2949A2
:100B200008604821D020FFF7E2FE1B4908734721E7
:100B3000D020FFF7DCFE184948730846007B497B4C
:100B400040EA012000B2154908800846B0F90000CB
:100B500003F021FE0646154A154B03F095FC0446AA
:100B600003F0EAFD00B20D4908800846B0F9000024
:100B700003F011FE064600220E4B03F085FC0446EE
:100B80004FF0C042104B04F049F8804603F08EFB52
:100B90000E490860BDE8F0870D01002042000020EA
:100BA00034000020380000203C0000203D0AD7A37C
:100BB000703DFA3F000024409999F13F2800002041
:100BC0009999B93F2C0000206666E63F300000206E
:100BD00001B509E0002000E0401C4CF25031884291
:100BE000FAD30099491E009100990029F2D108BD5D
:100BF00001B502E00098401E009000980028F9D14D
:100C000008BD00002DE9F04704464FF07C51204616
:100C100004F0EAFA814625462E46FE48A0EB660619
:100C200035462946484604F0DFFA8246294604F054
:100C3000DBFA80464FF07F5104F0D3FB074629468C
:100C400004F0D2FA05462846BDE8F0870FB5A5B0F6
:100C5000F1482799006804F0C7FA0D90EF482699EB
:100C6000006804F0C1FA0B90ED48006880F0004085
:100C70000990259904F0B8FA0A900B9904F0BCFB8E
:100C80000C900D9904F0B8FB4FF07C510E9004F0DD
:100C9000ABFA1F90E0482699006804F0A5FA0D9081
:100CA000DE482799006804F09FFA0B90DD48016840
:100CB000259804F099FA0A900B9904F0C5F80C9065
:100CC0000D9904F099FB4FF07C510E9004F08CFAD2
:100CD0001E90D1480168259804F086FA0D90D048FE
:100CE0002799006804F080FA0B90CE482699006896
:100CF00004F07AFA0A900B9904F07EFB0C900D999F
:100D000004F0A2F84FF07C510E9004F06DFA1D90A3
:100D1000C2480168259804F067FA0D90C0482699EA
:100D2000006804F061FA0B90BE482799006804F04F
:100D30005BFA0A900B9904F087F80C900D9904F077
:100D40005BFB4FF07C510E9004F04EFA1C9000219A
:100D5000289804F0A9F909D100212A9804F0A4F9EF
:100D600004D100212B9804F09FF97DD02B990846DF
:100D700004F03AFA0D902A99084604F035FA0B90DF
:100D80002899084604F030FA0A900B9904F05CF8B0
:100D90000C900D9904F058F80E90FFF733FF249053
:100DA0002499289804F020FA289024992A9804F08D
:100DB0001BFA2A9024992B9804F016FA2B90994844
:100DC00001684FF0804004F00FFA1B9094480168CE
:100DD0004FF0804004F008FA1A90904801684FF0F4
:100DE000804004F001FA19908B4801684FF0804070
:100DF00004F0FAF918908B4801684FF0814004F034
:100E0000F3F91790864801684FF0814004F0ECF93F
:100E10001690824801684FF0814004F0E5F9159082
:100E20007F4801684FF0824004F0DEF914907B485F
:100E300001684FF0824004F0D7F9139079480168B7
:100E4000006804F0D1F9129075480168006804F058
:100E5000CBF9119071480168006804F0C5F9109051
:100E60006D480168006800E046E104F0BDF90F90AC
:100E70002A991A9804F0B8F90E901199179804F06D
:100E8000B3F90C902899199804F0AEF90A901099CA
:100E9000179804F0A9F909900A9903F0D5FF0B906F
:100EA0000C9903F0D1FF0D900E9904F0A5FA239050
:100EB0002B99169804F098F90E901099149804F054
:100EC00093F90C901199149804F08EF90A902A99CC
:100ED0001B9804F089F907904FF08140129904F0B3
:100EE00083F903904E480168039804F07DF905905A
:100EF0002899189804F078F903900F99169804F03F
:100F000073F90290039904F077FA0490059903F0BD
:100F10009BFF0690079904F06FFA0890169904F069
:100F20006BFA09900A9903F08FFF0B900C9903F06C
:100F30008BFF0D900E9903F087FF22902B99159847
:100F400004F052F90E901099139804F04DF90C909A
:100F50001199139804F048F90A902A99189804F006
:100F600043F907900F99159804F03EF905902899D8
:100F70001B9804F039F903904FF08140129904F066
:100F800033F9019025480168019804F02DF9029089
:100F9000039903F059FF0490059903F055FF06905B
:100FA000079904F029FA0890159904F025FA099098
:100FB0000A9903F049FF0B900C9903F045FF0D903F
:100FC0000E9903F041FF21902A99199804F00CF929
:100FD0000E904FF08140109904F006F90A900E48E7
:100FE00001680A9804F000F90C9028991A9804F006
:100FF000FBF80A904FF08140119904F0F5F8089041
:1010000005480168089804F0EFF809900A9904F07F
:10101000F3F909E0DF59375F540000205000002049
:101020004C000020480000200B900C9903F00CFFAE
:101030000D900E9904F0E0F920902099084604F0F4
:10104000D3F80D902199084604F0CEF80B90229920
:10105000084604F0C9F809902399084604F0C4F83A
:101060000890099903F0F0FE0A900B9903F0ECFE4A
:101070000C900D9903F0E8FE0E90FFF7C3FD24904D
:10108000DDE9230104F0B0F823902499229804F0BC
:10109000ABF822902499219804F0A6F82190249985
:1010A000209804F0A1F820904E482399006804F09D
:1010B0009BF80E901F9904F094F91F9049482299CB
:1010C000006804F091F80E901E9904F08AF91E90C1
:1010D00044482199006804F087F80E901D9904F0A7
:1010E00080F91D903F482099006804F07DF80E902B
:1010F0001C9904F076F91C903B491F9804F074F891
:101100000E903A4801680E9803F09EFE3749086039
:1011100035491E9804F068F80E90354801680E981D
:1011200003F092FE324908602F491D9804F05CF8E4
:101130000E90304801680E9803F086FE2D49086035
:1011400029491C9804F050F80E902B4801680E981D
:1011500003F07AFE2849086008460168006804F038
:1011600043F80D9023480168006804F03DF80B90A7
:101170001F480168006804F037F809901B480168AF
:10118000006804F031F80890099903F05DFE0A90B8
:101190000B9903F059FE0C900D9903F055FE0E903B
:1011A000FFF730FD249011482499006804F01CF8E2
:1011B0000E4908600E482499006804F015F80C499F
:1011C00008600C482499006804F00EF8094908608A
:1011D00009482499006804F007F80749086029B015
:1011E00000BD0000440000200AD7A33B48000020B7
:1011F0004C00002050000020540000202DE9F04158
:1012000005460C460021204603F04EFF10D1002178
:10121000284604F0B5F802D28B48BDE8F0810021E1
:10122000284603F041FF01D10020F6E78748F4E7A4
:101230002146284603F076FE854908600846006886
:1012400003F0D6FD21F0004106460022814B03F059
:10125000B9FA2DD27E4801687F4803F0C5FF804669
:101260007B480168404603F0BFFF07464FF07E51C0
:1012700003F0EAFD064631467548006803F052FE69
:10128000764908600021204603F07AFF30D2002121
:10129000284603F075FF05D271497048006804F0D4
:1012A000ABF8BAE76E496D48006803F0CDFDB4E7CE
:1012B00067480168006803F097FF8046664903F0BD
:1012C000C3FD074639466248006803F02BFE064618
:1012D0005D4904F086F8614908600021284603F062
:1012E0004FFF05D25E495D48006804F085F894E739
:1012F0005A48006891E72DE9FF4F87B08A461446A7
:1013000099462146204603F06FFF51460190504612
:1013100003F06AFF0090019903F096FD4FF08041C1
:10132000029003F061FF83464FF07E5104F059F8BC
:1013300049460490204603F057FF51460290079813
:1013400003F052FF0190029903F07EFD83464FF0B7
:10135000804103F049FF03900499FFF74FFF059088
:1013600003F046FD05464FF066323E4B03F066FA49
:10137000074602F09BFF3C4908605146484603F08F
:1013800033FF21460290079803F02EFF0190029947
:1013900004F032F84FF08041039003F025FF8346BC
:1013A00003F026FDCDE9040102F01CFE81F00041AE
:1013B00007464FF066322B4B03F040FA054602F029
:1013C00075FF2A4908604946484603F00DFF21464B
:1013D0000190204603F008FF0090019903F034FDCE
:1013E00083464FF0804103F0FFFE80464FF07E5170
:1013F00003F0F7FF07462146504603F0F5FE83460B
:101400004946079803F0F0FE5946019003F01CFD91
:1014100080464FF0804103F0E7FE39460290FFF727
:10142000EDFE039003F0E4FC4FF066320D4BCDE986
:10143000040103F003FA054602F038FF0C49086086
:101440000BB0BDE8F08F0000DA0FC93FDA0FC9BF5B
:10145000680000200000F03F295C8F3E64000020FF
:10146000DB0F494066A64C40600000205C00002075
:101470005800002008B54FF4E06000F01DFD1E206C
:101480008DF8000001208DF8010000208DF8020089
:1014900001208DF80300684600F013FD08BD0EB56D
:1014A0000121042001F099F8104801F0D3FD4720F4
:1014B000ADF800000020ADF80600ADF8020041F2E2
:1014C0008730ADF804006946084801F097FE012115
:1014D000064802F0B5FC01221146044802F005FA64
:1014E0000121024802F0E6F90EBD000000080040AC
:1014F00008B501213C2001F063F80420ADF800009C
:1015000018208DF8030003208DF802006946334847
:1015100000F0A0FD0820ADF8000004208DF80300C5
:1015200069462E4800F096FD08BD00B587B0012140
:10153000480401F052F80020ADF80400ADF80600B0
:101540004FF40070ADF808000020ADF80A0001A9C2
:10155000234801F055F94FF4165003900020ADF8E0
:101560001000ADF81200ADF81400ADF818000C2012
:10157000ADF8160003A91A4801F0CDF840F2255144
:10158000174801F03CFA012240F22551144801F0BD
:101590005AF90121124801F04AF907B000BD10B50F
:1015A000044621460E4801F0AFF90120FFF710FB79
:1015B00010BD70B506460D463046FFF7F0FF3A20E5
:1015C000FFF7EDFF002403E0285DFFF7E8FF641C50
:1015D000042CF9DB2020FFF7E2FF70BD000801407A
:1015E0000044004000206449086064486449086081
:1015F00064486549086065486549086070472DE999
:10160000F04707460C4615461E46384603F0A0FD37
:101610008046604903F0B4FD1AD2384603F098FDC5
:1016200080465D4903F0ACFE12D2384603F090FDCF
:101630008246584903F076FC8146584903F0D4FDB0
:1016400080464D480168404603F0FEFB4A49086069
:1016500053494948006803F093FE06D25149464871
:10166000006803F0C9FE444908604F4942480068D9
:1016700003F086FD06D24B493F48006803F0E4FBC7
:101680003D490860204603F063FD8046414903F070
:1016900077FD1BD2204603F05BFD80463E4903F0F8
:1016A0006FFE13D2204603F053FD8246394903F002
:1016B00039FC81464FF0814103F096FD8046344865
:1016C0000168404603F0C0FB3149086037493048A3
:1016D000006803F055FE02D234482D4908602B49BA
:1016E0002B48006803F04CFD02D2284828490860C6
:1016F000304603F02DFD8046264903F041FD18D207
:10170000304603F025FD8046234903F039FE10D210
:10171000304603F01DFD82461E4903F003FC81465E
:10172000234903F061FD8046164903F08DFB1649FD
:101730000860284603F00CFD8046164903F020FDA2
:1017400018D2284603F004FD8046134903F018FE22
:1017500010D2284603F0FCFC82460E4903F0E2FB5F
:101760008146134903F040FD8046044903F06CFBB9
:1017700003490860BDE8F0876C0000200AD70B40E1
:1017800074000020508D973E7000002000007A44C5
:10179000780000200000DC420000DCC26666E63F04
:1017A000000034430000B443000034C30080ED4423
:1017B0000000F04100B589B00121022000F00DFFCA
:1017C00001210C2000F0FCFEC020ADF82000182004
:1017D0008DF8230003208DF8220008A9434800F06B
:1017E00039FC0320ADF8200018208DF823000320D9
:1017F0008DF8220008A93E4800F02CFC4FF47A70C6
:101800003C490880091D0880091D0880091D0880C1
:1018100041F28730ADF818004720ADF814000020E1
:10182000ADF8160005A93348343801F0E7FC602014
:10183000ADF804000020ADF80C000120ADF8060062
:101840002C480088ADF80A0001A92A48343801F074
:1018500012FD08212748343802F05CF90120ADF868
:1018600006002448001D0088ADF80A0001A921489F
:10187000343801F042FD08211E48343802F053F993
:101880000120ADF806001B4808300088ADF80A00BA
:1018900001A91848343801F07DFD08211548343875
:1018A00002F04EF90120ADF8060012480C30008815
:1018B000ADF80A0001A90F48343801F0B6FD08213F
:1018C0000C48343802F045F908210A48343802F04F
:1018D00040F901210748343802F0ECF801210548AD
:1018E000343801F0E7FF09B000BD000000080140F6
:1018F000000C0140340400402DE9F04106460F463B
:101900003946304603F078FD044624F00045D649B8
:10191000284603F035FD10D20021204603F030FDAB
:1019200006D22946D14803F067FD80F0004404E068
:101930002946CE4803F060FD04462046BDE8F0810C
:101940002DE9FF4F81B00F46904699460EAC70CC02
:101950002946404603F050FDC5490860C548016866
:10196000C348006803F040FC8246C3480168504603
:1019700003F06AFAC04908600021BF48006803F01C
:10198000FFFC03D20020BC4908600AE04FF0004190
:10199000B948006803F0F4FB03D24FF00040B649A9
:1019A0000860B6480168284603F026FD0090B44858
:1019B0000168009803F018FC8246B2480168AC4800
:1019C000006803F011FC0090AB480168009803F038
:1019D0003BFA8346514603F00FFDAB490860A74828
:1019E00005603146484603F007FDA1490860A1485B
:1019F00001689F48006803F0F7FB8246A34801682E
:101A0000504603F021FAA149086000219F48006870
:101A100003F0B6FC03D200209C4908600AE04FF0B6
:101A200000419A48006803F0ABFB03D24FF000403E
:101A30009649086096480168304603F0DDFC009046
:101A40008F480168009803F0CFFB82468D480168FB
:101A50008748006803F0C8FB00908C480168009834
:101A600003F0F2F98346514603F0C6FC864908604C
:101A70008748066021463846FFF73EFF7C490860EC
:101A8000844801687A48006803F0AEFB82468248C9
:101A90000168504603F0D8F97F49086000217E486C
:101AA000006803F06DFC03D200207B4908600AE067
:101AB0004FF000417848006803F062FB03D24FF01A
:101AC000004075490860754801682046FFF714FF1B
:101AD000009073480168009803F086FB82467148C5
:101AE00001686348006803F07FFB00906A48016862
:101AF000009803F0A9F98346514603F07DFC6A493A
:101B000008606648046069495F48006803F038FC73
:101B100002D266485C49086065495B48006803F08A
:101B20002FFB02D26248584908606049614800684A
:101B300003F026FC02D25D485E4908605C495D48BE
:101B4000006803F01DFB02D259485A4908605A49FF
:101B50005548006803F014FC02D257485249086007
:101B600056495148006803F00BFB02D253484E49D6
:101B7000086045480168019803F066F9504908601B
:101B800041480168019803F037FC4E490860494814
:101B90000168019803F058F94B490860454801680D
:101BA000019803F029FC4949086049494448006804
:101BB00003F0E6FB02D246484149086045494048E7
:101BC000006803F0DDFA02D242483D49086040490E
:101BD0003C48006803F0D4FB02D23D483949086014
:101BE0003C493848006803F0CBFA02D239483549FD
:101BF000086037493448006803F0C2FB02D2344819
:101C00003149086033493048006803F0B9FA02D21C
:101C100030482D4908602E492B48006803F0B0FB7E
:101C200002D22B48284908602A492748006803F057
:101C3000A7FA02D22748244908602148006803F027
:101C400067FA1FFA80FA5146234802F0CBF81D4884
:101C5000006803F05DFA1FFA80FA51461E4802F050
:101C6000C3F805B0BDE8F08F000034430000B44372
:101C7000B800002080000020A40000209800002070
:101C8000840000207C000020B0000020A000002084
:101C9000940000208C000020A80000209C00002060
:101CA0009000002088000020AC0000200000C84206
:101CB0000000C8C2B40000200000A0420000A0C282
:101CC000BC000020C0000020C4000020C80000208C
:101CD0000080ED4400007A44000400400CB5002070
:101CE000019000906B48006840F4803069490860BA
:101CF00000BF6848006800F4003000900198401C64
:101D00000190009818B90198B0F5A06FF1D1614821
:101D1000006810F4003F02D00120009001E0002094
:101D200000900098012842D15B48006840F0100004
:101D3000594908600846006820F00300086008461A
:101D4000006840F00200086052484068514948600D
:101D50000846406848600846406840F48060486033
:101D60000846406820F47C1048600846406840F40B
:101D7000E81048600846006840F08070086000BFC6
:101D80004448006810F0007FFAD04248406820F0D4
:101D90000300404948600846406840F0020048603F
:101DA00000BF3C48406800F00C000828F9D10CBD89
:101DB00010B5FFF793FF10BD10B53648006840F02E
:101DC00001003449086008464068344908403149F8
:101DD000486008460068324908402E4908600846B5
:101DE000006820F4802008600846406820F4FE0067
:101DF00048604FF41F008860FFF7DAFF4FF0006083
:101E00002849086010BD10B5002100200022214B98
:101E10005B6803F00C0121B1042906D0082928D100
:101E200007E0214B214C236027E01F4B1F4C236010
:101E300023E0184B5B6803F47010164B5B6803F4E7
:101E40008032022303EB904022B9194B4343174CD5
:101E500023600DE00F4B5B6813F4003F04D0144B7C
:101E60004343124C236003E00F4B43430F4C23606A
:101E700003E00D4B0D4C236000BF00BF054B5B68BA
:101E8000C3F303130B4CE15C084B1B68CB40074CBE
:101E9000236010BD00100240002002400000FFF847
:101EA000FFFFF6FE08ED00E000127A00CC000020F3
:101EB00000093D00D000002031490143314A116042
:101EC000704770B5002100230F22C4780CB32D4C4D
:101ED000246804F4E064C4F5E064210AC1F1040359
:101EE000CA40447804FA03F184781440214309017C
:101EF000254C0678A155047804F01F050124AC4058
:101F000005786D114FF0E02606EB8505C5F8004118
:101F100009E0047804F01F050124AC401B4D06784D
:101F2000761145F8264070BD194A0A400243154B08
:101F30001B1F1A60704739B1124A121D1268024302
:101F4000104B1B1D1A6006E00E4A121D12688243D8
:101F50000C4B1B1D1A607047042808D14FF0E0217C
:101F6000096941F004014FF0E022116107E04FF0F0
:101F7000E021096921F004014FF0E022116170476E
:101F80000000FA050CED00E000E400E080E100E074
:101F900080FFFF1F10B50446CA48844208D10121C2
:101FA000042000F027FB0021042000F023FB46E082
:101FB000C548844208D10121082000F01BFB002104
:101FC000082000F017FB3AE0C048844208D1012104
:101FD000102000F00FFB0021102000F00BFB2EE082
:101FE000BB48844208D10121202000F003FB0021DE
:101FF000202000F0FFFA22E0B648844208D10121F7
:10200000402000F0F7FA0021402000F0F3FA16E03B
:10201000B148844208D10121802000F0EBFA002170
:10202000802000F0E7FA0AE0AC48844207D10121A1
:10203000801500F0DFFA0021A01500F0DBFA10BDDA
:1020400010B50121084600F0D5FA0021012000F06A
:10205000D1FA10BD2DE9F0410246002500260020EE
:1020600000230024002791F803C00CF00F0591F81D
:1020700003C01CF0100F03D091F802C04CEA050514
:1020800091F800C0BCF1000F31D0146800202BE0A3
:102090004FF0010C0CFA00F3B1F800C00CEA030693
:1020A0009E4220D183004FF00F0C0CFA03F7BC4383
:1020B00005FA03FC4CEA040491F803C0BCF1280FB4
:1020C00006D14FF0010C0CFA00FCC2F814C00AE073
:1020D00091F803C0BCF1480F05D14FF0010C0CFA88
:1020E00000FCC2F810C0401C0828D1D31460B1F81D
:1020F00000C0BCF1FF0F34DD546800202EE000F179
:10210000080C4FF0010808FA0CF3B1F800C00CEA13
:1021100003069E4221D183004FF00F0C0CFA03F707
:10212000BC4305FA03FC4CEA040491F803C0BCF17B
:10213000280F05D100F1080C08FA0CF8C2F8148039
:1021400091F803C0BCF1480F07D100F1080C4FF023
:10215000010808FA0CF8C2F81080401C0828CED3F9
:102160005460BDE8F0814FF6FF710180022181705B
:102170000421C17070470246002093680B4201D0D1
:10218000012000E0002070470146886880B2704757
:1021900002460020D3680B4201D0012000E000205D
:1021A00070470146C86880B270470161704741615D
:1021B00070470AB1016100E041617047C16070473A
:1021C0004FF480320A43826181618261826982694F
:1021D000704702460020424B18684FF68073184043
:1021E00040EA021008433E4B186070473D49C86101
:1021F0007047F0B50A46002300240021002500F0B6
:102200000046B6F1004F02D1354EF16901E0344E7F
:102210007168C0F3034583B200F44016B6F5401F61
:1022200008D121F070612E4E766826F070662C4F32
:102230007E6012E000F48016B6F5801F06D10326FA
:1022400006FA05F4A14341F0706106E0460D36013F
:1022500003FA06F6B14341F0706122B1460D360132
:1022600003FA06F6314300F00046B6F1004F02D102
:102270001B4EF16101E01A4E7160F0BD30B50022D5
:102280008B071C0F0F2303FA04F2154B08338C1035
:1022900053F824309343124C08348D1044F8253001
:1022A00023468C1053F824308C07240F00FA04F4D2
:1022B00023430B4C08348D1044F8253030BD0A49B7
:1022C0000860704700080140000C01400010014008
:1022D0000014014000180140001C01400020014092
:1022E0000000014000002042DC002042DD48006880
:1022F00040F00100DB49086008464068DA490840C0
:10230000D849486008460068D8490840D54908605F
:102310000846006820F4802008600846406820F4E1
:10232000FE0048604FF41F0088607047CD4909687F
:1023300021F48031CB4A11601146096821F48021D3
:102340001160B0F5803F03D0B0F5802F0ED106E0CC
:10235000C449096841F48031C24A116007E0C149AB
:10236000096841F4A021BF4A116000E000BF00BF2E
:10237000704710B501460022002300204A11012AAF
:1023800002D1B84C236806E0022A02D1B54C236A78
:1023900001E0B44C636A01F01F02012494401C4226
:1023A00001D0012000E0002010BD38B500200090D1
:1023B0000024002500BF3120FFF7DBFF0546009811
:1023C000401C00900098B0F5A06F01D0002DF2D015
:1023D0003120FFF7CEFF08B1012400E000242046A1
:1023E00038BD014600209F4A106820F0F80040EAFE
:1023F000C100106070479E49086070470246002087
:10240000984B586820F47C1042EA01031843954B1E
:102410005860704796490866704701460020914A07
:10242000506820F003000843506070478D484068B2
:1024300000F00C007047014600208A4A506820F0E6
:10244000F00008435060704701460020854A5068FC
:1024500020F4E06008435060704701460020814A44
:10246000506820F4605040EAC1005060704729B1C4
:102470007C4A527A02437B4B5A7204E0794A527A80
:102480008243784B5A7270477A4908607047014618
:102490000020744A506820F4404008435060704760
:1024A0000021754A11706F4A82F82010012802D06D
:1024B000042808D103E001216F4A117004E00521CE
:1024C0006D4A117000E000BF00BF70476B490860A3
:1024D00070476449096A0143624A1162704767495B
:1024E00044390860704730B50021002200240023E1
:1024F0005C4D6D6805F00C0121B1042905D0082957
:1025000023D105E05E4D056022E05D4D05601FE0D2
:10251000544D6D6805F47012524D6D6805F48034A9
:10252000022505EB92421CB9564D554305600BE060
:102530004C4D6D6815F4003F03D0524D5543056076
:1025400002E04F4D5543056002E04D4D056000BF70
:1025500000BF444D6D6805F0F00109094A4D6B5C00
:102560000568DD4045603F4D6D6805F4E061090A8E
:10257000454D6B5C4568DD4085603A4D6D6805F4FE
:102580006051C90A404D6B5C4568DD40C560354D02
:102590006D6805F44041890B3C4D6B5CC568B5FB2B
:1025A000F3F5056130BD29B12E4A526902432D4B26
:1025B0005A6104E02B4A526982432A4B5A617047A0
:1025C00029B1284A92690243264B9A6104E0254AC0
:1025D00092698243234B9A61704729B1214AD2699B
:1025E0000243204BDA6104E01E4AD26982431D4B4C
:1025F000DA61704729B11B4AD2680243194BDA608D
:1026000004E0184AD2688243164BDA60704729B159
:10261000144A12690243134B1A6104E0114A126909
:102620008243104B1A617047144940390860704763
:102630000F49C86470470B49C87170470948406A20
:1026400040F0807007494862704701460020054A03
:1026500092680A4201D0012000E000207047014941
:1026600088727047001002400000FFF8FFFFF6FE7E
:1026700000004242D8004242201002408004424200
:1026800000127A0000093D00E0000020F000002068
:1026900010B50446FB48844209D101218803FFF7A5
:1026A000A9FF00214FF48040FFF7A4FF32E0F64875
:1026B000844209D101214804FFF7A9FF00214FF40A
:1026C0000030FFF7A4FF25E0F048844209D1012142
:1026D0008804FFF79CFF00214FF48020FFF797FF4D
:1026E00018E0EB48844209D10121C804FFF78FFFAD
:1026F00000214FF40020FFF78AFF0BE0E5488442F9
:1027000008D101210805FFF782FF00214FF4801056
:10271000FFF77DFF10BD2DE9F04786B005460E4658
:102720000024A24600BFA1460027B08900B100BF27
:102730002F462C8A4CF6FF700440F08804432C820C
:10274000AC894EF6F3100440B08831890843718992
:1027500008430443AC81AC8A4FF6FF400440B08983
:102760000443AC8201A8FFF7BEFEC648874202D1EF
:10277000DDF810A001E0DDF80CA0A88910F4004FEE
:1027800008D00AEBCA0000EB0A1031684900B0FB20
:10279000F1F807E00AEBCA0000EB0A103168890083
:1027A000B0FBF1F86420B8FBF0F0040120096421CB
:1027B00001FB1089A88910F4004F08D0322000EBEB
:1027C000C900B0FBF1F000F00700044308E032203C
:1027D00000EB09106421B0FBF1F000F00F0004439E
:1027E0002C8106B0BDE8F0874FF41651016000213E
:1027F0008180C18001810C2141810021818170474C
:1028000010B502460020108A4FF2FF0318400B88D3
:102810004C8823438C882343CC882343184310825D
:1028200010BD0021018041808180C180704721B1AD
:10283000828942F40052828104E082894DF6FF735E
:102840001A4082817047F0B5034600240026002517
:102850000020A1F510676A3F00D100BF1846C1F300
:10286000421401F01F06012707FA06F5012C01D1D9
:102870000C3004E0022C01D1103000E014301AB109
:1028800007682F43076002E00768AF430760F0BDA9
:102890001AB1838A0B43838202E0838A8B4383824B
:1028A0007047028A4FF6F0731A400282028A0A4386
:1028B0000282704782894FF2FF731A4082818289B7
:1028C0000A438281704721B1828942F002028281EB
:1028D00004E082894FF6FD731A4082817047028AB4
:1028E0004FF6DF731A400282028A0A43028270475F
:1028F00021B1028A42F48042028204E0028A4BF64D
:10290000FF731A4002827047C1F308028280704749
:1029100001468888C0F308007047818941F00101B1
:1029200081817047028BD2B20283028B42EA01227C
:1029300002837047028B02F47F420283028B0A43B8
:102940000283704721B1828A42F02002828204E031
:10295000828A4FF6DF731A408282704721B1828AE1
:1029600042F01002828204E0828A4FF6EF731A402E
:102970008282704721B1828A42F00802828204E09A
:10298000828A4FF6F7731A408282704721B182899A
:1029900042F40042828103E08289C2F30E02828106
:1029A000704721B1828A42F40062828204E0828A06
:1029B0004FF2FF731A4082827047828A4FF6FB7390
:1029C0001A408282828A0A438282704721B1828AB7
:1029D00042F00202828204E0828A4FF6FD731A40BE
:1029E0008282704702460020B1F5007F00D100BF0F
:1029F00013880B4201D0012000E00020704701F451
:102A00000072B2F5007F00D100BFCA430280704758
:102A100070B502460024002300250020A1F51066B1
:102A20006A3E00D100BFC1F3421501F01F03012629
:102A300006FA03F3012D02D19689334006E0022DF8
:102A400002D1168A334001E0968A33400C120126E7
:102A500006FA04F41688344013B10CB1012000E0EA
:102A6000002070BD10B500220023A1F510646A3C5F
:102A700000D100BF0A1201249440A3B2DC430480B9
:102A800010BD0000003801400044004000480040F4
:102A9000004C00400050004001460020FE4A1068F3
:102AA00000F03800084310607047FB49096821F0C6
:102AB0000801F94A11601146096801431160704725
:102AC000F549096821F01001F34A116011460968BF
:102AD000014311607047F148EF494860F048486091
:102AE0007047EE48EC494860ED4848607047EA4856
:102AF000006940F08000E84908617047E6480069D5
:102B000040F08000E449086170470420E249C96848
:102B100011F0010F01D001200EE0DF49C96811F06A
:102B2000040F01D0022007E0DB49C96811F0100F43
:102B300001D0032000E00420704700B502460423C2
:102B4000FFF7E3FF034603E0FFF7DFFF0346521EF4
:102B5000012B01D1002AF7D102B90523184600BD87
:102B600030B5044604254FF43020FFF7E6FF054654
:102B7000042D17D1C848006940F00200C649086119
:102B800008464461006940F0400008614FF430207D
:102B9000FFF7D3FF0546C048006941F6FD710840C4
:102BA000BD490861284630BD10B504244FF43020DB
:102BB000FFF7C3FF0446042C16D1B748006940F064
:102BC0000400B54908610846006940F0400008610A
:102BD0004FF43020FFF7B1FF0446AF48006941F6DB
:102BE000FB710840AC490861204610BD00B50246A3
:102BF0000423FFF78AFF034603E0FFF786FF03463F
:102C0000521E012B01D1002AF7D102B90523184623
:102C100000BD10B504244FF43020FFF7E7FF044651
:102C2000042C16D19C48006940F004009A490861C0
:102C30000846006940F0400008614FF43020FFF77B
:102C4000D5FF04469448006941F6FB71084092495B
:102C50000861204610BD00208F49C96911F0020F9C
:102C600001D0012000E00020704730B5A5250424E4
:102C7000FFF7F1FF00B100254FF43020FFF75DFFB3
:102C80000446042C3AD1854883498860844888608A
:102C90000846006940F0200008610846006940F0DD
:102CA000400008614FF43020FFF747FF0446042C32
:102CB0001BD17948006941F6DF7108407649086107
:102CC0000846006940F01000086176480580E0027F
:102CD000FFF733FF0446052C10D06F48006941F61A
:102CE000EF7108406C49086108E0052C06D06A487D
:102CF000006941F6EF71084067490861204630BD20
:102D000078B506460C46042500200090E802FFF73F
:102D100014FF0546042D24D15F48006940F00100EE
:102D20005D4908613480E802FFF707FF0546042D7E
:102D300010D1B01C0090200C00990880E802FFF729
:102D4000FCFE05465448006941F6FE7108405249B0
:102D5000086106E05048006941F6FE7108404E499E
:102D60000861284678BD70B504460D460426F00279
:102D7000FFF7E3FE0646042E11D14748006940F0F4
:102D80000100454908612580F002FFF7D6FE06469E
:102D90004148006941F6FE7108403F4908613046EC
:102DA00070BD70B505460E460424E002FFF7C5FE6F
:102DB0000446042C17D13948374988603848886060
:102DC0000846006940F0100008612E80E002FFF71D
:102DD000B4FE0446052C06D02F48006941F6EF7179
:102DE00008402D490861204670BD2DE9F043044696
:102DF0004FF6FF763746B046B1460425E443E6B2C7
:102E0000C4F30727C4F307484FEA1469E802FFF741
:102E100094FE0546042D49D120481F49886020486A
:102E200088600846006940F010000861FF2E06D057
:102E30001C4808300680E802FFF77FFE0546042D97
:102E400008D1FF2F06D017480A300780E802FFF7A5
:102E500074FE0546042D0AD1B8F1FF0F07D01148C2
:102E60000C30A0F80080E802FFF767FE0546042D4D
:102E70000AD1B9F1FF0F07D00A480E30A0F8009030
:102E8000E802FFF75AFE0546052D0FD002480069FB
:102E900041F6EF71084007E000200240230167453A
:102EA000AB89EFCD00F8FF1F664908612846BDE8F1
:102EB000F08330B5054604244FF43020FFF73DFE83
:102EC0000446042C41D160485E4988605F488860B0
:102ED0000846006940F0200008610846006940F09B
:102EE000400008614FF43020FFF727FE0446042C11
:102EF00022D15448006941F6DF7108405149086108
:102F00000846006940F0100008611DB100205049DA
:102F1000088002E0A5204E4908804FF43020FFF7DA
:102F20000CFE0446052C10D04648006941F6EF71AE
:102F300008404449086108E0052C06D04148006972
:102F400041F6DF7108403F490861204630BDF0B5C9
:102F500005460E46174604243B483A4988603B48DC
:102F60008860E002FFF7E9FD0446042C19D13548DA
:102F7000006940F010003349086147F0F800304321
:102F800028433349891C0880E002FFF7D6FD044638
:102F9000052C06D02B48006941F6EF7108402949FD
:102FA00008612046F0BD2748C06980087047254861
:102FB000006A704700202349096811F0200F01D0F2
:102FC000012000E00020704729B11E4A1269024327
:102FD0001C4B1A6104E01B4A12698243194B1A61A7
:102FE000704701460020012908D1164AD26912F023
:102FF000010F01D0012008E0002006E0114AD2684C
:103000000A4201D0012000E0002070470D49C8604D
:10301000704704200B49C96811F0010F01D001204D
:103020000EE00849C96811F0040F01D0022007E042
:103030000449C96811F0100F01D0032000E00420FA
:10304000704700000020024023016745AB89EFCDA7
:1030500000F8FF1F10B50446FE48844208D1012144
:10306000C014FFF7C7FA0021E014FFF7C3FAC4E069
:10307000B4F1804F08D101210846FFF7C8FA0021BA
:103080000120FFF7C4FAB8E0F348844208D10121D7
:103090000220FFF7BCFA00210220FFF7B8FAACE0EB
:1030A000EE48844208D101210420FFF7B0FA002144
:1030B0000420FFF7ACFAA0E0E948844208D10121DE
:1030C0000820FFF7A4FA00210820FFF7A0FA94E0F7
:1030D000E448844208D101211020FFF798FA00212A
:1030E0001020FFF794FA88E0DF48844208D10121DC
:1030F0002020FFF78CFA00212020FFF788FA7CE0DF
:10310000DA48844208D101214014FFF773FA002104
:103110006014FFF76FFA70E0D548844209D10121AD
:10312000C804FFF767FA00214FF40020FFF762FAA6
:1031300063E0D048844209D101210805FFF75AFA1B
:1031400000214FF48010FFF755FA56E0CA48844238
:1031500009D101214805FFF74DFA00214FF4001075
:10316000FFF748FA49E0C548844208D101214020D0
:10317000FFF74DFA00214020FFF749FA3DE0C04833
:10318000844208D101218020FFF741FA00218020EC
:10319000FFF73DFA31E0BB48844208D10121801598
:1031A000FFF735FA0021A015FFF731FA25E0B64800
:1031B000844209D101210804FFF71CFA00214FF4D1
:1031C0008030FFF717FA18E0B048844209D1012196
:1031D0004804FFF70FFA00214FF40030FFF70AFA16
:1031E0000BE0AB48844208D101218804FFF702FAC2
:1031F00000214FF48020FFF7FDF910BD0022028866
:10320000944B98420ED0994B98420BD0B0F1804F1E
:1032100008D0914B984205D0904B984202D0904BE9
:10322000984204D14FF68F731A404B881A438D4B46
:10323000984207D08C4B984204D04FF6FF431A4077
:10324000CB881A4302808B8883850B880385814B4A
:1032500098420BD0854B984208D08B4B984205D0B2
:103260008A4B984202D08A4B984201D10B7A03864E
:1032700001238382704770B5002400220023058C4F
:103280004FF6FE7635400584028C8388048B4FF61A
:103290008F752C40B51E2C400D882C43751E2A407E
:1032A0000D892A434D882A436A4DA8420BD06F4DA1
:1032B000A84208D0744DA84205D0744DA84202D04F
:1032C000734DA84213D14FF6F7752A404D892A4312
:1032D0004FF6FB752A408D882A434FF6FF652B4039
:1032E0004FF6FF552B408D892B43CD892B4383808F
:1032F0000483CD888586028470BD70B500240022C9
:103300000023058C4FF6EF7635400584028C8388C8
:10331000048B48F6FF752C404FF6FF452C400D8876
:103320004FF6FF7606EA05252C434FF6DF752A4057
:103330000D8906EA05152A434D8806EA05152A4334
:10334000444DA84202D0494DA8421DD14FF67F7589
:103350002A404D894FF6FF7606EA05152A434FF6B7
:10336000BF752A408D8806EA05152A434FF6FF35BA
:103370002B404FF2FF752B408D8906EA85052B43C4
:10338000CD8906EA85052B4383800483CD88058794
:10339000028470BD70B5002400220023058C4FF616
:1033A000FF6635400584028C8388848B4FF68F75C9
:1033B0002C404FF6FC752C400D882C434FF6FF55E2
:1033C0002A400D894FF6FF7606EA05252A434D88E7
:1033D00006EA05252A431F4DA84202D0234DA842E4
:1033E0001DD14FF2FF752A404D894FF6FF7606EA50
:1033F00005252A434FF6FF352A408D8806EA052524
:103400002A434EF6FF752B404DF6FF752B408D89F4
:1034100006EA05152B43CD8906EA05152B43838063
:103420008483CD888587028470BD70B50022002317
:103430000024058C4EF6FF7635400584038C848885
:10344000828B48F6FF752A404FF6FF452A400D88CB
:1034500020E00000002C0140000400400008004073
:10346000000C0040001000400014004000340140F7
:10347000004C014000500140005401400018004041
:10348000001C00400020004000400140004401407A
:10349000004801404FF6FF7606EA05252A434DF61F
:1034A000FF752B400D8906EA05352B434D8806EA4A
:1034B00005352B43FA4DA84202D0FA4DA84208D157
:1034C0004BF6FF752C408D894FF6FF7606EA851581
:1034D0002C4384808283CD88A0F84050038470BD43
:1034E000828B4FF2FF331A408283828B4FF6FF7339
:1034F00003EA01231A4382837047F0B50C46154650
:10350000002200210026078C4EF6FF7C07EA0C07FC
:103510000784828B018C4FF6FF7707EA043640F66A
:10352000FF473A404FF6FF7707EA05273A434FF641
:10353000FF7707EA03373A43D94FB8420ED0D94F45
:10354000B8420BD0B0F1804F08D0D74FB84205D069
:10355000D64FB84202D0D64FB84206D14DF6FF77CB
:10356000394046F48057394305E047F6FF57394064
:1035700044F48057394382830184F0BD828B4FF637
:10358000F3731A408283828B0A4382837047F0B5BB
:103590000C461546002200210026078C4FF6FF6CD2
:1035A00007EA0C070784828B018C4FF6FF7707EA46
:1035B00004264FF60C773A404FF6FF7707EA0317D9
:1035C0002F433A43B64FB8420ED0B64FB8420BD055
:1035D000B0F1804F08D0B44FB84205D0B34FB842D5
:1035E00002D0B34FB84206D14FF6FF57394046F4E8
:1035F0008077394305E04FF2FF57394044F4807734
:10360000394382830184F0BD028B4FF2FF331A40AD
:103610000283028B4FF6FF7303EA01231A430283EE
:103620007047F0B50C461546002200210026078C95
:103630004FF6EF7C07EA0C070784028B018C4FF6EC
:10364000FF7707EA041640F6FF473A404FF6FF7748
:1036500007EA03373A434FF6FF7707EA05273A436D
:103660008F4FB8420ED08F4FB8420BD0B0F1804F81
:1036700008D08D4FB84205D08C4FB84202D08C4F45
:10368000B84206D14FF6DF77394046F0100739438C
:1036900005E04FF65F77394044F010073943028365
:1036A0000184F0BD028B4FF6F3731A400283028B44
:1036B0000A4302837047F0B50C46154600220021EC
:1036C000068C4FF6FE773E400684028B018C4FF647
:1036D0000C7632407E1C06EA03162E433243704EAF
:1036E000B0420ED06F4EB0420BD0B0F1804F08D038
:1036F0006D4EB04205D06D4EB04202D06C4EB0421D
:1037000006D14FF6FD76314044F00106314305E025
:103710004FF6F576314044F00106314302830184CF
:10372000F0BD70B505460C465D4885420ED05D483B
:1037300085420BD0B5F1804F08D05B48854205D05B
:103740005A48854202D05A48854200D100E000BF65
:10375000208850B92389A28861882846FFF7ABFFEB
:10376000E1882846FFF79EFF25E0208804280AD13B
:103770002389A28861882846FFF753FFE1882846FD
:10378000FFF742FF17E0208808280AD12389A28882
:1037900061882846FFF7FBFEE1882846FFF7EEFE2A
:1037A00009E02389A28861882846FFF7A6FEE18800
:1037B0002846FFF795FE70BD2DE9F04105460C4601
:1037C00000260127608808B9022600E00026A088AC
:1037D000012801D1022700E001272088A0B9238910
:1037E000A28861882846FFF766FFE1882846FFF730
:1037F00059FF23893A4631462846FFF712FFE188F0
:103800002846FFF701FF13E02389A2886188284634
:10381000FFF707FFE1882846FFF7F6FE23893A46BF
:1038200031462846FFF747FFE1882846FFF73AFF71
:10383000BDE8F0810A884B881A438B881A43CB88ED
:103840001A430B891A434B891A438B891A43A0F8F0
:10385000442070474FF6FF71818000210180C180B4
:103860004180017270470021018041808180C180C8
:10387000018141818181C1817047002101804180A6
:10388000012181800021C1800181704700210180D8
:1038900041808180C1800181418181817047000028
:1038A000002C0140003401400004004000080040AA
:1038B000000C004021B1028842F00102028004E0C5
:1038C00002884FF6FE731A400280704731B1B0F89B
:1038D000442042F40042A0F8442005E0B0F844201F
:1038E000C2F30E02A0F8442070471AB183890B433B
:1038F000838102E083898B43838170478182704793
:1039000041EA0203A0F8483070471AB183890B439B
:10391000838102E083898B438381704701894FF65D
:10392000F8721140018170470A46002101894FF663
:103930008F73194011430181704730B504460D461D
:1039400029462046FFF7F0FF208940F0070020813C
:1039500030BD2DE9F04104460D4616461F46602D48
:1039600006D13B46012231462046FFF75AFE05E0CC
:103970003B46012231462046FFF79DFE2946204660
:10398000FFF7D2FF208940F007002081BDE8F081D9
:1039900030B50C4600210189C9B24FF6FF7505EA22
:1039A0000325154325432943018130BD2DE9F0410D
:1039B00005460E4617469846002443463A46314689
:1039C0002846FFF7E5FF2C894FF6F870044044F0D5
:1039D00007044FF68F70044044F070042C81BDE85A
:1039E000F081F0B504460D4616461F463B4632466A
:1039F00029462046FFF7CCFF208940F480402081F3
:103A0000F0BD0185828270470A46002101884FF689
:103A10008F731940114301807047F0B50C4615466D
:103A20001E460021002200230189028B038C4FF6E1
:103A3000F877394021434FF6FC473A4040F20117EE
:103A40003A434FF6DD773B404FF6FF7707EA06171C
:103A50002F433B43018102830384F0BD0A460021CA
:103A6000018B4FF68F7319401143018370470A464B
:103A70000021018B48F6FF7319404FF6FF7303EAEC
:103A800002231943018370470A460021818B4FF6B8
:103A90008F7319401143818370470A460021818B3F
:103AA00048F6FF7319404FF6FF7303EA02231943E8
:103AB0008183704721B1028842F08002028004E0D5
:103AC00002884FF67F731A400280704721B18288C6
:103AD00042F00402828004E082884FF6FB731A40B1
:103AE0008280704721B1828842F00802828004E01F
:103AF00082884FF6F7731A408280704721B182881E
:103B000042F00102828004E082884FF6FE731A4080
:103B1000828070470A460021018B4FF6F7731940E7
:103B20001143018370470A460021018B4FF2FF7356
:103B300019404FF6FF7303EA0223194301837047CC
:103B40000A460021818B4FF6F77319401143818398
:103B500070470A460021818B4FF2FF7319404FF6E0
:103B6000FF7303EA02231943818370470A46002149
:103B7000018B4FF6FB7319401143018370470A46CE
:103B80000021018B4FF6FF3319404FF6FF7303EA14
:103B900002231943018370470A460021818B4FF6A7
:103BA000FB7319401143818370470A460021818BC2
:103BB0004FF6FF3319404FF6FF7303EA0223194310
:103BC000818370470A460021018B4FF67F731940AD
:103BD0001143018370470A460021018BC1F30E0196
:103BE0004FF6FF7303EA02231943018370470A4625
:103BF0000021818B4FF67F731940114381837047F9
:103C00000A460021818BC1F30E014FF6FF7303EAD0
:103C100002231943818370470A460021018C4FF625
:103C2000FD7319401143018470470A460021018C3D
:103C30004FF6F77319401143018470470A4600217B
:103C4000018C4FF6DF7319404FF6FF7303EA02133E
:103C50001943018470470A460021018C4FF67F7397
:103C600019404FF6FF7303EA0213194301847047AA
:103C70000A460021018C4FF6FF5319404FF6FF739F
:103C800003EA02231943018470470A460021018C8C
:103C90004FF2FF7319404FF6FF7303EA02231943F3
:103CA000018470470A460021018C4DF6FF731940CC
:103CB0004FF6FF7303EA023319430184704730B5AE
:103CC000002301248C40A3B2048C9C430484048C04
:103CD00002FA01F5ADB22C43048430BD30B50023A7
:103CE00004248C40A3B2048C9C430484048C02FA08
:103CF00001F5ADB22C43048430BD70B503460020FD
:103D000000241846183001258D40ACB21D8CA54307
:103D10001D8409B1082909D100EB6100056825F06F
:103D2000700505600568154305600EE00D1FC5F3BD
:103D30004E052844056825F4E045056005684FF602
:103D4000FF7606EA02263543056070BD21B1028880
:103D500042F00202028004E002884FF6FD731A402E
:103D60000280704721B1028842F00402028004E020
:103D700002884FF6FB731A400280704721B1828897
:103D800042F08002828004E082884FF67F731A40FE
:103D90008280704702884FF6F7731A4002800288CB
:103DA0000A430280704782884FF68F731A408280E0
:103DB00082880A438280704702894FF6F8731A405E
:103DC000028102890A430281704702894FF67F739C
:103DD0001A40028102890A43028170478184704738
:103DE000818570478186704701877047818770475A
:103DF000A0F84010704702884FF6FF431A40028037
:103E000002880A43028070470146888E7047014647
:103E1000088F70470146888F70470146B1F840000F
:103E200070470146888C70470146088D70470246EE
:103E30000020138A0B4201D0012000E000207047CF
:103E4000CA430282704730B5024600200023002496
:103E5000158A05EA0103958905EA010413B10CB13D
:103E6000012000E0002030BDCA4302827047704745
:103E70007047704710B500F009F8006810BD10B524
:103E8000044600F003F8046010BD000000487047CD
:103E90001C010020004870471C0100207546FFF7F8
:103EA000F9FFAE4605006946534620F007008546F7
:103EB00018B020B5FCF798F9BDE820404FF0000697
:103EC0004FF000074FF000084FF0000B21F0070102
:103ED000AC46ACE8C009ACE8C009ACE8C009ACE845
:103EE000C0098D4670470446AFF300802046FCF7BA
:103EF00066F9000001491820ABBEFEE7260002006B
:103F00007047490050EAC12018BF04204A0D18BF6D
:103F100040F0010040F2FF72B2EB515F08BF40F089
:103F20000200012808BF052070472DE9F0414F1E0F
:103F300000EBC7010446D1E9000115461E4637F0E3
:103F400006020DD02A46334600F078FC7F1E04EBB3
:103F5000C703D3E9002300F0DBF937F00602F1D103
:103F6000022F25D0042F13D0062F18BFBDE8F081F3
:103F70002A46334600F062FCD4E90A2300F0C8F96F
:103F80002A46334600F05AFCD4E9082300F0C0F971
:103F90002A46334600F052FCD4E9062300F0B8F973
:103FA0002A46334600F04AFCD4E9042300F0B0F975
:103FB0002A46334600F042FCD4E9022300F0A8F977
:103FC0002A46334600F03AFCD4E90023BDE8F0412C
:103FD00000F09EB9024A0020110701F0B4BA0000B7
:103FE00001FDFFFF2DE9F04D904F21F0004A86B012
:103FF00005460C46BA4530DBAAEB070028430CD037
:104000008B48824501DC1CD1DDB106B02846BDE8F5
:10401000F04D4FF0010201F096BA864A864B2846D1
:1040200000F00CFC07460E46844A854B2846214684
:1040300000F004FC06B03A463346BDE8F04D00F00F
:1040400067B90120FFF71BFF06B00022BDE8F04D65
:1040500013461046114600F017BA7A48824542DAF4
:10406000BAF1795F0BDA2846FFF74BFF042808BF47
:10407000FFF7B0FF284606B02146BDE8F08D2A467E
:104080000B46104600F0DAFB834602466E480E46A9
:104090000B4606217844FFF748FF5A46334600F0A6
:1040A000CDFB804669488A465A4633460421784407
:1040B000FFF73BFF5A46334600F0C0FB00223B4669
:1040C00000F026F902460B464046514600F0DCF966
:1040D0002A46234600F0B2FB06B02A462346BDE836
:1040E000F04D00F015B9284624F0004100223D466D
:1040F0003B4600F0A1FC4FF0FF3201F024FA0646E7
:10410000024653480F460B4606217844FFF70DFF41
:1041100032463B4600F092FBCDE900014D48324665
:104120003B4604217844FFF700FF32463B4600F04F
:1041300085FB00222B4600F0EBF8834602913046C7
:10414000394600F08DF8804643480D46504517DC4F
:10415000DDE900015A46029B00F096F942462B46E3
:1041600000F06CFB42462B4600F0D2F8012201F031
:10417000EAF9304A304B00F051FD304A304B4CE008
:104180004FF0000A52460B46404600F0C1F8CDE918
:10419000031052462B461046194600F04FFB32469C
:1041A0003B4600F049FCDDE9033200F06DF90646BC
:1041B0000F46DDE900015A46029B00F065F983468F
:1041C000009101223046394601F0BDF9194A1A4BD7
:1041D00000F032FC06460F4601224046294601F017
:1041E000B2F95A46009B00F029FB32463B4600F0EC
:1041F00015FD07460E4601225046294601F0A3F957
:104200000E4DDFF858802A46434600F015FC3A462A
:10421000334600F011FC2A46434600F00DFC002C0A
:10422000D8BF81F0004106B0BDE8F08D0000F03F3E
:104230000000F07F075C143326A6913C182D4454EF
:10424000FB21F93F0000E03F40150000561500003B
:10425000CA140000E01400003333EF3FFB21E93FB4
:104260002DE9F04106460F4600F0F2FB04000D4632
:1042700018BF0120284320F00040C0F17F6000F10A
:10428000E040C00F0ED0301C18BF0120384320F092
:104290000040C0F17F6000F1E040C00F04BF01208A
:1042A000FFF7EDFD20462946BDE8F08121F00042F0
:1042B000A2F16052B2F5801F01F0004328BFD2F195
:1042C0007F6C0BD95FEA001C43EAC20242EB5070DC
:1042D00018BF704728BF20F001007047B2F5801F5B
:1042E000BCBF184670474FEA410C1CF5001F02D2B4
:1042F000084601F040B870B500F04AFB00000089A4
:10430000FFF7F6BF4FF00040A0F5800070470000B7
:1043100010B591EA030F48BF83F0004300F1868493
:10432000841A71EB030C05D2121943EB0C03001B2A
:1043300061EB0C01DFF824E14FEA1154A4EB135CAC
:104340001EEA430F18BF9EEA445F73D023EA0E03B0
:10435000DCF1200E21EA045143F4801332D322FA17
:104360000CFE10EB0E0023FA0CFE41EB0E01CCF11B
:10437000200E03FA0EFE10EB0E0051F10001B1F514
:10438000801FCCF1200E32D201EB045112FA0EF252
:10439000BDE8104058BF7047401C38BF5FEA42027A
:1043A00018BF7047002814BF20F0010041F1000140
:1043B0004FEA410313F5001F38BF7047A1F1C04118
:1043C00000F034BB012A43EB0302ACF1200CDCF11A
:1043D0001F0E32BF4FF0000E23FA0CF310EB030058
:1043E00041EB0451B4EB115FD0D0A1EB045101F5C6
:1043F000801149085FEA300001EB04510ED350F1FF
:10440000000038BF12FA0EFE08D1BDE81040C9E71F
:10441000401C38BF5FEA4202CAD1C3E7BDE8104082
:104420004FEA410313F5001F38BF7047A1F1C041A7
:1044300000F0FCBA9EEA445F08D011EA5E0FBDE8C6
:10444000104004BF01F0004100207047BDE810405B
:1044500070B500F09DFA00BF64FBBE3E0000E0FFB7
:1044600002494FF0000001F03CB800BF0000F87FA7
:10447000491058BFC1F140415B1058BFC3F14043E0
:104480008B42EFF3008070472DE9C04130B4DFF874
:10449000A0C23CEA111418BF3CEA131400F0EC80EF
:1044A00081EA03051CEA111444EAD57418BF1CEA1A
:1044B000131500F0C780A4EB05044FF0004545EA52
:1044C000C12145EAC32341EA505143EA525304F162
:1044D0007F74994204F500344FEAC0204FEAC222AB
:1044E00008BF904200F09C804FEA13650FF240161F
:1044F000765D4FEA134506FB05F7C7F1807706FBAB
:1045000007F74FEAD737A7FB03687642C8F580382C
:10451000A7FB06CE38BFA8F1010807FB08E64FF05D
:10452000000EA6FB028CE6FB03CEDCF1000CCEF104
:10453000004E38BFAEF1010EA6FB0C584FF000073D
:104540004FF00005E6FB0E87A1FB08C6A0FB07CED7
:1045500016EB0E0645F10005E1FB076515F1E04E8F
:104560007EBFA4F580345FEA46066D4116F18007F0
:1045700045F100054FEA17274FEA066647EA056747
:10458000A6F1DE46B6F1805F4FEA15251FD9384601
:1045900024F0010C05EBC471BCF1FE6F01EB0C11B2
:1045A00002D8F0BCBDE8008124425CBF01F5801E4A
:1045B0009EEAC47F02D4F0BCBDE80081244238D416
:1045C000F0BCA1F1C041BDE8004100F02FBA4FEAB4
:1045D000D22242EA43524FEAD323A7FB02864FEA94
:1045E000D02040EA415007FB03661EEA0E0F4FEA57
:1045F000D12105FB026658BFA6EB0056B6EB00566C
:104600004FEA520E4EEAC37E18EB0E0E56EB530ED7
:10461000BDD518EB02085E417F1C55F10005B6E7D9
:104620004FF480154FF000074FF000064FF00008E0
:10463000ADE7F0BC4FF0000001F1C04101F00041D6
:10464000BDE8008111EA0C1F0CEA131500D00CE044
:1046500013EA0C1F00F025804FF00000F0BC81EA47
:10466000030101F00041BDE80081F0BCBDE800415C
:1046700081EA030100F0DAB9F0BCBDE8004170B591
:1046800000F086F9097EFC3E00F007B881EA0301DC
:104690004FF0000001F00041704781EA030100F093
:1046A000C5B9F0BCBDE800414FF00000214970479A
:1046B000FFFDFBF9F7F5F4F2F0EEEDEBE9E8E6E4E7
:1046C000E3E1E0DEDDDBDAD8D7D5D4D3D1D0CFCD6E
:1046D000CCCBCAC8C7C6C5C4C2C1C0BFBEBDBCBBA7
:1046E000BAB9B8B7B6B5B4B3B2B1B0AFAEADACABA2
:1046F000AAA9A8A8A7A6A5A4A3A3A2A1A09F9F9E7C
:104700009D9C9C9B9A99999897979695959493932D
:10471000929191908F8F8E8E8D8C8C8B8B8A8989C4
:104720008888878786858584848383828281818047
:104730000000FF070000F87F4FEA41034FEA5353A0
:10474000A3F58063D3F11E03C8BFD3F1210C0CDDA8
:104750004FF0004242EAC12242EA505232FA03FCD0
:104760008CEAE17CACEBE1707047102BC4BF0020F9
:10477000704703F5787CBCF1FF3F04D06FF0004236
:1047800082EA2100704770B500F002F94992248056
:1047900000207047F2E710F0004248BF4042B0FAF4
:1047A00080F310FA03F10AD0C3F11D0303F580630F
:1047B0004FEA415002EB035202EBD12170474FF018
:1047C0000000704751EA030C17D41CF5801F58BF36
:1047D000BCF5801F00F10680994218BF704708BFE2
:1047E0009042704707D711F5801F58BF13F5801FFF
:1047F00019D499427047894270471CF5801F08D52B
:10480000BCF5801FF7D58B4218BF704708BF8242A6
:1048100070474FF4001C1CEB410F38BF1CEB430FDB
:1048200001D28B42704770B500F0B2F89224490073
:104830004FF000514FF08053FFF71ABEDFF848C128
:1048400070B51CEA111E1EBF1CEA13159EEA0C0F60
:1048500095EA0C0F00F06F8081EA030423EA4C1301
:104860004EEAD47E21EA4C1141F4801143F48013C6
:10487000AE44A1FB024CA0FB0365AEF17F7E36196E
:1048800055EB0C05A1FB034C4CF10003A0FB021CF3
:1048900016EB0C06654153F10003094218BF46F0C0
:1048A000010613F4007F0BD14FEA03314FEA0530C4
:1048B000340341EA155140EA16506FF003020AE052
:1048C0004FEAC3214FEAC520F40241EA555140EABC
:1048D00056506FF0020202EB2E4201EB025585EAC0
:1048E000CE710AD05FEA440C18BF24F0004450F1A6
:1048F000000041F1000120EAD47040F2FE7C6245E4
:1049000000D270BDA84214BF4FF080444FF0404425
:10491000002E08BF0024BEF1806FA8BFA1F1C041E6
:10492000BDE8704080F282804FF0000001F1C0418C
:1049300001F0004170479EEA0C0F0CEA131518BFF6
:1049400095EA0C0F06D04FF0000081EA030E0EF03E
:10495000004170BD00F01CF88900013E00F007B86E
:1049600000F009B84FEA430C5FEA5C5C08D081EACA
:10497000030100F05BB84FEA410C5FEA5C5CF6D1E2
:104980004FF00000014970470000FF070000F87F6A
:104990000EF1020E2EF0030E5EF8046B364205D4C3
:1049A000012A43EB030515F5001F12D8012841EB3E
:1049B000010C1CF5001F0CD80ED14FEAD17C15F567
:1049C000001F0CEB4C0C0CF1020C08BF4CEBD37C21
:1049D00004E04FF0080C01E04FEAD37C0CEB4C05EF
:1049E00026FA05F606F00706B6F1040C06D20EEB21
:1049F000860CBDE870404CF0010C6047DFE80CF01D
:104A0000090B02024FF000414FF00000A1F5002118
:104A100070BD19461046012851EB010418BFD4F5AA
:104A2000001484BF002001F0004170BD0808A0F50B
:104A300000114FEA3101704791EA030F10B581F080
:104A400000413FF56DAC83F0004300F0EFB800008B
:104A50002DE9F04101F5801CBCF5001FC0F2C380B8
:104A60004FEA115C21EA0C510CF1FD0C41F480116C
:104A70005FEA5C0C0CF5C07C01D3400049413DA4C9
:104A8000890241EA905187028E0E0A0CA45D04FB54
:104A900004F602FB06F6C6F14046A4FB0662F60DDC
:104AA00046EA422606FB06F4A4FB01235242C3F168
:104AB000404338BF5B1EA6FB02420024E6FB0324F2
:104AC000D20B42EA4446A6FB0623A1FB02E2A3FB6B
:104AD00007E4A4184FF0000252F10002E3FB014288
:104AE0006442C2F1404E38BFAEF1010EA6FB042372
:104AF0004FF00002E6FB0E32A2FB03464FF000042B
:104B0000B61954F10004E2FB0264A1FB06E6A4FB23
:104B100007E816EB08064FF0000858F10008E4FB20
:104B200001687642C8F1405838BFA8F10108A2FBDD
:104B300006E4A3FB08E52D194FF0000454F100042E
:104B4000E2FB0854A1FB05E6A7FB04E818EB060806
:104B50004FF0000656F10006E1FB048618F120052F
:104B600056F10006A809A8F11B08B10908F03F0892
:104B7000B8F10A0F40EA86601CD901EB0C51BDE880
:104B8000F08100BFFCF5EEE8E2DDD8D3CFCBC7C3A0
:104B9000C0BDB9B6B4B1AEACA9A7A5A3A19F9D9B5A
:104BA0009A9896959392908F8D8C8B89888786851D
:104BB00084838281A0FB006800FB01F208EB4208BD
:104BC000B8EB872807D5341858EB0104D5D5401C1D
:104BD00051F10001D1E7341A78EB0104CDD4401E25
:104BE00071F10001C9E75FEA4C0C5FEA9C5C0DD1F2
:104BF00005D34FF0000001F00041BDE8F081BDE8B1
:104C0000F04170B5FFF7C4FE6DDBFFBEBDE8F041BB
:104C10004FF00000004970470000F87F10B591EA9E
:104C2000030F48BF83F000433FF57AAB841A71EB62
:104C3000030C07D212198CF0004C43EB0C03001B41
:104C400061EB0C01DFF8A4E14FEA1154A4EB135C13
:104C50001EEA430F18BF9EEA445F00F0B08023EACB
:104C60006E03524221EA0451C3EB6E0338BF5B1E50
:104C7000DCF1200E25D322FA0CFE10EB0E0043FAD5
:104C80000CFE41EB0E01CCF1200E03FA0EFE10EBF0
:104C90000E0051F10001CCF1200E29D412FA0EF2CF
:104CA00001EB0451BDE8104058BF7047401C1CBFC9
:104CB000B2F1004F704700280CBF491C20F00100E2
:104CC000704712EB020E43EB030218BF4FF0010EC8
:104CD0004EEA4202ACF1200CDCF11E0E54D943FA2C
:104CE0000CFE10EB0E0051F1FF31CCF11E0ED5D5AC
:104CF0000EF1010E12FA0EFE404141EB010101EBF3
:104D0000445C5FEA5C5C10D910EBDE7001EB04518F
:104D100038BFBEF1004FBDE8104018BF70470028F3
:104D20000CBF491C20F00100704730D24FEAD42C50
:104D300011F5001124F400641BD0B1FA81F20B3A92
:104D4000A41AA41ED2F12003914030FA03F31943B0
:104D5000904001EBCC71002C01EB0451BDE81040F8
:104D6000A8BF704701F1C0414FF0000001F00041C1
:104D70007047B0FA80F310FA03F100D110BDE41AC5
:104D8000173C4805C90AE4E701EB045110BD49107E
:104D900001EB0451BDE810404FEA300002E04FF053
:104DA000000170474A0008BF0042F8D0B2F5001F6A
:104DB00028BF704701F000414FF0000070479EEAA5
:104DC000445F07D011EA5E0FBDE8104004BF002128
:104DD00000207047BDE8104070B5FFF7D9FD00BF57
:104DE00040DFF63E83F00041104670470000E0FFD0
:104DF00043004FEAD30C4FEA3C0C43401FBF40072F
:104E00000CF1605113F0FE4F70471CF0006F03D19E
:104E100000200CF0004170470CF0004343EA507052
:104E200010B540EACC0000F060FA00BF000000922C
:104E30004FEA0001FFF7FABD4FF000414FF00000CC
:104E4000A1F500217047000090EA010F48BF81F0F2
:104E5000004100F1D882421A3CBF801A89184FEAFB
:104E6000D0524FF07F4C1CEA410FA2EBD15318BF38
:104E70009CEA026F00F03B804FF0004C4CEA0020AF
:104E80004CEA012121FA03FC10EB0C0C1ED202F1BA
:104E9000FF325FEA1C2040EBC25038BF70471CF065
:104EA0007F0F4FEA400C18BFBCF17F4F38BF7047EF
:104EB000C3F12003994008BF20F00100BCF17F4FEF
:104EC00038BF7047A0F1C04000F055BA4FEA3C002F
:104ED000000A40EBC25028BF1CF0FF0F4FEA400C05
:104EE000E6D018BFBCF17F4F38BF7047EAE79CEAB5
:104EF000026F05D010EA5C0F08BF00F00040704759
:104F000010B500F0F2F900BF64FBBE3E401058BF80
:104F1000C0F14040491058BFC1F140418142EFF318
:104F2000008070474FF47F0C1CEAD0121EBF1CEAB1
:104F3000D11392EA0C0F93EA0C0F00F0858090EAEF
:104F4000010F48BF42F4807240F4000C41F40000AD
:104F50002CF07F4120F07F4000B58142A2EB03029C
:104F60000FF2081CACEB504EC0F100009EF800E0C0
:104F70004FEA4E0E00FB0EFC38BF49004FEA2C1CD6
:104F800002F5FA020CFB0EF34FEACE1E4FEA112C8B
:104F90004FEAC1210EEB635E42EB22420EFB0CFC9A
:104FA0004FEA1C5300FB03114FEA112C4FEA013169
:104FB0000EFB0CFC4FEADC4C00FB0C11C14228BF7D
:104FC00009184CEB03335DF804EB10EB410143EBA4
:104FD000C250B2F57C0F38BF704729D512F0F00FE0
:104FE0001CBF00F1C04000F0004070470081828388
:104FF0008485868788898B8C8D8E8F9192939596E8
:1050000097999A9C9D9FA0A2A3A5A7A8AAACAEB071
:10501000B2B3B5B7B9BCBEC0C2C5C7C9CCCED1D476
:10502000D7D9DCDFE2E6E9ECF0F3F7FAFE000000A6
:105030004FEA400C0CF1807CBCF17E4F28BF7047DA
:10504000B0F1C04000F097B990EA010F0CEAD1131B
:1050500048BF42F48072624538BF634507D213F4FB
:105060007F0F16D080EA010000F00040704710B5B5
:1050700000F03BF9097EFC3E00F005B880EA010033
:1050800000F00040704780EA010000F0004000F0AE
:1050900072B912F47F0F04BF0248704780EA010022
:1050A00000F069B90000C07F50EA010C00F11380E4
:1050B0001CF5000F58BFBCF5000F01D488427047A3
:1050C00007D710F5000F58BF11F5000F15D488420F
:1050D0007047894270471CF5000F04D5BCF5000FDE
:1050E000F7D5814270474FF0807C1CEB400F38BFF2
:1050F0001CEB410F01D28142704710B500F0F5F86A
:10510000922449004FF000504FF08051FFF7FEBE4F
:10511000C10DD1F19E0206DB4FEA002343F00043AC
:1051200023FA02F07047004207D54FEA4001B1F17F
:10513000FE4F02D24FF00000704710B500F0D5F8D6
:1051400049922480002070476FEA200070470000D9
:1051500010F0004148BF4042B0FA80F310FA03F269
:10516000C3F19D030BD051EAC35101EB122053064A
:1051700038BF704700F1010008BF20F00100704700
:1051800050EA010C00F113801CF5000F58BFBCF56C
:10519000000F01D48842704707D710F5000F58BFA1
:1051A00011F5000F15D488427047894270471CF5ED
:1051B000000F04D5BCF5000FF7D5814270474FF0C2
:1051C000807C1CEB400F38BF1CEB410F01D28142A9
:1051D000704710B500F089F8922449004FF0005054
:1051E0004FF08051FFF792BE4FF47F0C1CEAD012B3
:1051F0001EBF1CEAD11392EA0C0F93EA0C0F00F0C9
:10520000478090EA010F48BF42F480724FF0004C93
:105210004CEA00204CEA012102EB0302A0FB01133F
:10522000A2F50002002918BF43F001035B0028BF6C
:105230004FEA330342EB22425FEA132C4CEBC2509D
:105240002EBFBCEB436FB2F57C0F70474FEA036C87
:10525000BCF1004F08BF20F00100B2F57C0F38BF51
:1052600070470BD582F0FF0212F5803FC8BF704730
:1052700000F1C040D8BF00F00040704700F5000CBE
:105280005FEA4C0C48BF7047B0F1C04000F073B803
:1052900090EA010F0CEAD11348BF42F480726245D4
:1052A00038BF634504D280EA010000F00040704737
:1052B00010B500F01AF800BF8900013E00F007B8F1
:1052C00000F009B85FEA410C5FEA1C6C08D080EA84
:1052D000010000F050B85FEA400C5FEA1C6CF6D1A8
:1052E0004FF00040A0F5800070470EF1020E2EF046
:1052F000030E5EF8044B244204D44FEA4102B2F19B
:105300007F4F11D84FEA4003B3F17F4F0CD80ED135
:105310004FEAD07CB2F17F4F0CEB4C0C0CF1020C3D
:1053200008BF4CEBD17C04E04FF0080C01E04FEAE1
:10533000D17C0CEB4C0324FA03F404F00704B4F121
:10534000040C06D20EEB840CBDE810404CF0010CAE
:105350006047DFE80CF0070802024FF00040A0F5BC
:10536000800010BD0846420018BFD2F1807288BF8D
:1053700000F0004010BDFF2141EAD050C005704749
:1053800051EA000C00F113801CF5000F58BFBCF56A
:10539000000F01D48142704707D711F5000F58BFA5
:1053A00010F5000F15D481427047894270471CF5F3
:1053B000000F04D5BCF5000FF7D5884270474FF0B9
:1053C000807C1CEB410F38BF1CEB400F01D28842A0
:1053D000704780EA010081EA000180EA0100FFF7DE
:1053E000F8BE80F0004090EA010F7FF534AD81F007
:1053F000004100F008B8000090EA010F48BF81F0BA
:1054000000413FF528AD421A04D882F00042A0EBDB
:10541000020011444FEAD0524FF07F4C1CEA410F7A
:10542000A2EBD15318BF9CEA026F4AD04FF0004C58
:105430004CEA00204CEA012121FA03FCB0EB0C0CF1
:105440000FD412F0FE0F36D05FEA4C001DD50012CB
:1054500040EBC25038BF70471CF03F0F18BF704779
:105460000BE0A2F101025FEA1C2040EBC25038BF02
:1054700070471CF07F0F18BF7047C3F1200399409D
:1054800014BF401E20F00100704780084FEA12232D
:1054900008BF7047B0FA80FCA2EB0C02CCF1280CDC
:1054A00060FA0CF093EA122F04BF00EBC250704771
:1054B0004FEAC3707047130A5FEADC1008BF7047F9
:1054C000F6E79CEA026F04D010EA5C0F08BF0020E8
:1054D000704710B5FFF709FF40DFF63E81F000404E
:1054E00070470CF00F03092B08BF082000F059800B
:1054F0000A2B0BD0082B18BF704708BF1CF0400FB9
:105500000AD04FF000004FF0000170471CF0400F30
:1055100018BF4FF0004070471CF0100F08D020F06B
:10552000704300F07F4242EAD3014FEA4370704774
:1055300000F0604021F07F4242EA000201F07F402B
:1055400040EA727070474FF0FF0C4CF4E06C1CEABC
:1055500011531CBF9CEA030C9445C2BFDA4201EB15
:1055600002517047002B0DD0BCF1000F0FD0002A64
:1055700001F00041A4BF41F0E04141F07F614FF0F4
:105580000000704701F000414FF00000704750EA02
:1055900001334FF09B0C18BF4CF0806C7EF460AF71
:1055A00070471CF4801F11D01CF4E02F03D06FEA69
:1055B000CC31490070474FF04050EFF3008222F0A9
:1055C000704242EA000282F3008870474FF0000008
:1055D0007047000000000000555555555555C53F12
:1055E0007D6FEB0312D6D4BF5544880E55C1C93F19
:1055F0003B8F68B52882A4BF88B20175E0EF493FB0
:1056000009F7FD0DE13D023F4B2D8A1C273A03C0EF
:10561000C88A599CE52A004059018D1B6C06E6BFDB
:1056200082922EB1C5B8B33F485600080000002052
:10563000F40000006C0100083C570008F400002052
:105640008C06000088010008000000000000000037
:10565000000000000000000000000000000000004A
:10566000000000000000000000000000000000003A
:10567000000000000000000000000000000000002A
:10568000000000000000000000000000CDCCCC3D78
:105690000000803F0000000000000000000000004B
:1056A00000000000000000000000000000000000FA
:1056B00000000000000000000000000000000000EA
:1056C000000000000000803E000000000000C84113
:1056D000000000400000000000006B4300000000DC
:1056E00000000000000000000000000000000000BA
:1056F00000000000000000000000000000000000AA
:105700000000000000000000000000000000000099
:105710000000000000A24A04000000000000000099
:105720000102030406070809000000000102030447
:0C57300001020304060708090204060831
:0400000508000131BD
:00000001FF
